{
  "transactions": [
    {
      "hash": "0x560f38af42d6030c3ffc3e828e864c1742b52faf0d26585d8cf45fd88cf1b7ef",
      "transactionType": "CALL",
      "contractName": null,
      "contractAddress": "0x622087f7033157da7d4f84197e068e9736aefa6a",
      "function": "mintNFT(string)",
      "arguments": [
        "ipfs://bafkreiamwdsjopq76ccoydldmvvnbp4eerawrrjns4rarlp4fto5euu3l4"
      ],
      "transaction": {
        "from": "0x4888f28143259d33d1df4dd83689b469b0d4c8f5",
        "to": "0x622087f7033157da7d4f84197e068e9736aefa6a",
        "gas": "0x3d4d5",
        "value": "0x0",
        "input": "0xfb37e88300000000000000000000000000000000000000000000000000000000000000200000000000000000000000000000000000000000000000000000000000000042697066733a2f2f6261666b726569616d7764736a6f7071373663636f79646c646d76766e627034656572617772726a6e73347261726c703466746f35657575336c34000000000000000000000000000000000000000000000000000000000000",
        "nonce": "0x3",
        "chainId": "0xaa36a7"
      },
      "additionalContracts": [],
      "isFixedGasLimit": false
    }
  ],
  "receipts": [
    {
      "status": "0x1",
      "cumulativeGasUsed": "0x6e0dfd",
      "logs": [
        {
          "address": "0x622087f7033157da7d4f84197e068e9736aefa6a",
          "topics": [
            "0xddf252ad1be2c89b69c2b068fc378daa952ba7f163c4a11628f55a4df523b3ef",
            "0x0000000000000000000000000000000000000000000000000000000000000000",
            "0x0000000000000000000000004888f28143259d33d1df4dd83689b469b0d4c8f5",
            "0x0000000000000000000000000000000000000000000000000000000000000000"
          ],
          "data": "0x",
          "blockHash": "0xcd8e8780635a33377661301987d59a030c434c155d608b0b45fae373de714703",
          "blockNumber": "0x71f084",
          "transactionHash": "0x560f38af42d6030c3ffc3e828e864c1742b52faf0d26585d8cf45fd88cf1b7ef",
          "transactionIndex": "0x56",
          "logIndex": "0x70",
          "removed": false
        }
      ],
      "logsBloom": "0x00000000000000000000000000000000000000000000000000000000000000000000000000000000000000000000040000000008000000000000000000000000000000000000000000001008000000000000000000000000000000000000000000000000020000000000000000000800000000000000000000000011000000000000000000000000000000000000000000000020000000000000000000000000000000000000000000000000000000000000000000000000000000000000000000000002000000000000000000000200000000000000000000000000000020000000000000000000000000000000000000000000000000000000000000000000",
      "type": "0x2",
      "transactionHash": "0x560f38af42d6030c3ffc3e828e864c1742b52faf0d26585d8cf45fd88cf1b7ef",
      "transactionIndex": "0x56",
      "blockHash": "0xcd8e8780635a33377661301987d59a030c434c155d608b0b45fae373de714703",
      "blockNumber": "0x71f084",
      "gasUsed": "0x2c61c",
      "effectiveGasPrice": "0x3919b6de0",
      "from": "0x4888f28143259d33d1df4dd83689b469b0d4c8f5",
      "to": "0x622087f7033157da7d4f84197e068e9736aefa6a",
      "contractAddress": null
    }
  ],
  "libraries": [],
  "pending": [],
  "returns": {},
  "timestamp": 1736586570,
  "chain": 11155111,
  "commit": "b73e03a"
}